:100000000C947A000C94A2000C94A2000C94A20010
:100010000C94A2000C94A2000C94A2000C94A200D8
:100020000C94A2000C94A2000C94A2000C94A200C8
:100030000C94A2000C94A2000C94A2000C94A200B8
:100040000C9495080C94A2000C9405090C94DF08FC
:100050000C94A2000C94A2000C94A2000C94A20098
:100060000C94A2000C94A200CDCCCC3D0AD7233C2A
:1000700017B7D13877CC2B329595E6241FB14F0AAC
:10008000000020410000C84200401C4620BCBE4C7D
:10009000CA1B0E5AAEC59D74000000002400270044
:1000A0002A0000000000250028002B0000000008A6
:1000B000000201000003040700000000000000002F
:1000C00000000000230026002900040404040404A6
:1000D00004040202020202020303030303030102F7
:1000E00004081020408001020408102001020408C6
:1000F0001020370911241FBECFEFD8E0DEBFCDBFDF
:1001000022E0AEE8B1E001C01D92AB34B207E1F7E6
:1001100011E0A0E0B1E0ECE8F0E202C005900D9241
:10012000AE38B107D9F710E0CAE7D0E004C0219794
:10013000FE010E944C0EC937D107C9F70E948409FD
:100140000C9444100C940000CF92DF92EF92FF9237
:10015000CF93DF93B0913B02A0E08111AB2F809150
:100160003C0290E0880F991FAC0140545F4FC09053
:100170004102D0904202E0904302F090440230E00D
:1001800020E0FA01C591D491E881B90190E080E0C6
:10019000EB23EA130AC02F5F3F4F6C157D058E05D8
:1001A0009F0578F36FEF7FEFCB01DF91CF91FF9049
:1001B000EF90DF90CF900895CF93DF9390E0FC0114
:1001C000E252FF4F249186539F4FFC018491882374
:1001D000D1F090E0880F991FFC01E856FF4FA591E0
:1001E000B491FC01EE55FF4FC591D491623071F48A
:1001F0009FB7F8943C91822F809583238C93E8815C
:100200002E2B28839FBFDF91CF9108958FB7F8944D
:10021000EC912E2B2C938FBFF6CF3FB7F8948091A3
:100220008F0190919001A0919101B091920126B51A
:10023000A89B05C02F3F19F00196A11DB11D3FBF1E
:10024000BA2FA92F982F8827BC01CD01620F711DED
:10025000811D911D42E0660F771F881F991F4A95E7
:10026000D1F708958F929F92AF92BF92CF92DF9273
:10027000EF92FF924B015C010E940D016B017C012A
:100280000E940D016C197D098E099F09683E73401B
:1002900081059105A8F321E0821A9108A108B1080F
:1002A00088EEC80E83E0D81EE11CF11C8114910475
:1002B000A104B10429F7FF90EF90DF90CF90BF9099
:1002C000AF909F908F9008958F929F92AF92BF9220
:1002D000EF92FF920F931F93CF93DF93CDB7DEB7CB
:1002E000C054D1400FB6F894DEBF0FBECDBF2FB7BC
:1002F000F8948091930190919401A0919501B0910F
:1003000096012FBF40913D0250913E0260913F0205
:10031000709140028C019D01041B150B260B370BBD
:10032000B901A801403D574061057105A0F48091D5
:100330004502C05CDE4F0FB6F894DEBF0FBECDBFE6
:10034000DF91CF911F910F91FF90EF90BF90AF90F1
:100350009F908F90089580933D0290933E02A093CA
:100360003F02B0934002109238021092370210926E
:100370003602109235021092340262E08091390206
:100380000E94DC0061E070E080E090E00E943201B9
:1003900061E0809139020E94DC008091390290E096
:1003A000FC01E455FF4F2491FC01E252FF4F3491D0
:1003B000FC01E653FF4FE491EE23D9F0222359F0DC
:1003C000233009F44BC008F03EC0213009F44CC082
:1003D000223009F44DC0F0E0EE0FFF1FEE55FF4F45
:1003E000A591B4918FB7F894EC9130953E233C934E
:1003F0008FBF80913A028551823008F046C08BE26F
:1004000091E10197F1F762E0809139020E94DC00EE
:100410008091460290E08230910538F0880F991F54
:10042000880F991F05970197F1F7F89480E00E94D3
:10043000A4006F3F7F4F8F4F9F4F71F51092450281
:10044000789480E076CF2730B1F02830D1F0243096
:1004500009F0C1CF809180008F7D03C08091800022
:100460008F7780938000B7CF84B58F7784BDB3CF6B
:1004700084B58F7DFBCF8091B0008F778093B000E3
:10048000AACF8091B0008F7DF9CF64E170E080E069
:1004900090E00E943201B7CF81E00E94A4006F3F3C
:1004A0007F4F8F4F9F4F51F2CE0101967C015E012D
:1004B0009FEBA91A9EEFB90A870180E00E94A40071
:1004C000F801608371838283938381E00E94A4009A
:1004D000F8016483758386839783085F1F4FA01696
:1004E000B10659F7789430E020E0F70180809180E0
:1004F000A280B3804481558166817781FFEF8F169A
:100500009F06AF06BF0631F04F3F0FEF5007600761
:10051000700719F41092450294CFF90183E0F59524
:10052000E7958A95E1F7EC5CFD4F8081880F841692
:100530009506A606B70618F180832F5F3F4F18E097
:10054000E10EF11C2832310581F6409138022091EC
:10055000340280913502280F3327331F80913602F1
:10056000280F311D80913702820F932F911D9927FB
:100570004817190679F681E080934502DACE81604A
:10058000DBCFAF92BF92CF92DF92EF92FF920F93A9
:100590001F93CF93DF936C017B018B01040F151F19
:1005A000EB015E01AE18BF08C017D10759F0699181
:1005B000D601ED91FC910190F081E02DC6010995E5
:1005C000892B79F7C501DF91CF911F910F91FF9092
:1005D000EF90DF90CF90BF90AF900895FC01538DC6
:1005E000448D252F30E0842F90E0821B930B54170D
:1005F00010F0CF96089501970895FC01918D828D9A
:10060000981761F0A28DAE0FBF2FB11D5D968C9132
:10061000928D9F5F9F73928F90E008958FEF9FEF71
:100620000895FC01918D828D981731F0828DE80F2D
:10063000F11D858D90E008958FEF9FEF0895FC01E7
:10064000918D228D892F90E0805C9F4F821B9109B4
:100650008F739927089587E991E00E941F0321E095
:10066000892B09F420E0822F089580E090E0892B07
:1006700029F00E942B0381110C9400000895FC01C5
:10068000A48DA80FB92FB11DA35ABF4F2C91848DF3
:1006900090E001968F739927848FA689B7892C9350
:1006A000A089B1898C91837080648C93938D848DA3
:1006B000981306C00288F389E02D80818F7D8083A6
:1006C0000895EF92FF920F931F93CF93DF93EC0166
:1006D00081E0888F9B8D8C8D98131AC0E889F989E9
:1006E000808185FF15C09FB7F894EE89FF896083EC
:1006F000E889F98980818370806480839FBF81E06D
:1007000090E0DF91CF911F910F91FF90EF900895AE
:10071000F62E0B8D10E00F5F1F4F0F731127E02E89
:100720008C8D8E110CC00FB607FCFACFE889F989C1
:10073000808185FFF5CFCE010E943F03F1CFEB8D85
:10074000EC0FFD2FF11DE35AFF4FF0829FB7F89495
:100750000B8FEA89FB8980818062CFCFCF93DF93B3
:10076000EC01888D8823B9F0AA89BB89E889F989C9
:100770008C9185FD03C0808186FD0DC00FB607FCFE
:10078000F7CF8C9185FFF2CF808185FFEDCFCE0131
:100790000E943F03E9CFDF91CF910895FC012581AD
:1007A000222339F0F8E02F0290011124820F931FC9
:1007B000089590E080E0089542E050E068E171E043
:1007C00087E991E00C94C102CF93DF93FC01019083
:1007D0000020E9F73197AF01481B590BBC0187E9AD
:1007E00091E00E94C102EC010E94DC038C0F9D1F6E
:1007F000DF91CF910895EF92FF920F931F93CF93C4
:10080000DF93EC018C81982F9F7739F48078806298
:100810008C83198218821B821A828C8185FD09C003
:1008200080E090E0DF91CF911F910F91FF90EF90CA
:10083000089561157105A1F37A018B018881998171
:10084000009749F1DC011696ED91FC91D8010D90CD
:100850000020E9F71197AD01401B510B30E020E07B
:10086000309749F0DF010D900020E9F79D012150FC
:1008700031092E1B3F0B2417350751F4D801200FE7
:10088000311F2A173B0771F25D9141915417C9F34B
:100890000E94CE03D5CFD7011496ED91FC91159708
:1008A00012968D919C9113970896E817F90720F4FA
:1008B00081E018968C93B4CF38971596FC93EE93FD
:1008C0001497309709F4ACCFAA81BB81109791F0AF
:1008D000CF018A1B9B0B23E0959587952A95E1F71D
:1008E00015968C93FB83EA83158214821783068303
:1008F000CF0198CFF983E883F5CF0F931F93CF9360
:10090000DF93EC0188819981009759F02A813B811E
:100910002617370730F081E0DF91CF911F910F91BB
:1009200008958B016F5F7F4F0E94770F009759F0FA
:10093000998388831B830A832C813D81232B59F75C
:10094000FC011082E8CF80E0E7CFCF92DF92EF92F8
:10095000FF920F931F93CF93DF938C01DC0192964C
:10096000ED91FC91E80FF91F12826C01B2E0CB0E01
:10097000D11CC114D10449F1F60101900020E9F71E
:100980003197EC19FD09F1F0DC01ED90FC90D701F5
:100990001496CD91DC91CE0FDF1FBE01C7010E94DE
:1009A0007D04882391F0F701208131818481958134
:1009B000B601820F931F0E943D10D7011596DC935C
:1009C000CE931497F80113A212A2D80192968D919A
:1009D0009C91DF91CF911F910F91FF90EF90DF904D
:1009E000CF9008951F93CF93DF93EC01162F8AA128
:1009F0009BA101968097B8F48AA19BA19C012F5FCF
:100A00003F4F3BA32AA38C0F9D1FFC01128321E0C3
:100A100030E08CA19DA1820F931F9DA38CA3DF9139
:100A2000CF911F910895CE010E94A504892B21F337
:100A300030E020E0EECFBF92CF92DF92EF92FF92B4
:100A40000F931F93CF93DF93EC016A018B017B011E
:100A5000E40EF51EE016F106D1F0F801B1908F0119
:100A60008AA19BA10196809760F48AA19BA19C0119
:100A70002F5F3F4F3BA32AA38C0F9D1FFC01B28227
:100A8000E9CFCE010E94A504892B79F3E3CF4CA1D5
:100A90005DA14C0D5D1D5DA34CA3DF91CF911F9116
:100AA0000F91FF90EF90DF90CF90BF9008958F92BD
:100AB0009F92AF92BF92CF92DF92EF92FF920F93ED
:100AC0001F93CF93DF93CDB7DEB766970FB6F89439
:100AD000DEBF0FBECDBF6C018E01095E1F4F7801D6
:100AE0008AE0882E912CA12CB12CCB01BA01A50152
:100AF00094010E942A0E942F852F605DF801629365
:100B00008F01A901692F782F4115510561057105E4
:100B100061F7A7014E1B5F0BBF01C6010E941B05B9
:100B200066960FB6F894DEBF0FBECDBFDF91CF91B2
:100B30001F910F91FF90EF90DF90CF90BF90AF90FB
:100B40009F908F900895FB0101900020E9F7319765
:100B5000AF01461B570B0C941B051F93CF93DF93DC
:100B6000EBE1F1E01281112379F0329621816213D9
:100B7000F9CFEC016CE50E94F204612FCE01DF9108
:100B8000CF911F910C94F2046111F9CF6CE271E0E6
:100B9000DF91CF911F910C94A3052F923F924F921A
:100BA0005F926F927F928F929F92AF92BF92CF92FD
:100BB000DF92EF92FF920F931F93CF93DF93CDB706
:100BC000DEB76C970FB6F894DEBF0FBECDBF8C01B9
:100BD0001B01DC0114968C9114978F77863009F4F1
:100BE00099C268F58230A0F11296ED90FC901397AF
:100BF000CC901196DC90843008F05DC2A701B6015C
:100C0000C1010E941B05F10184A195A16C960FB64C
:100C1000F894DEBF0FBECDBFDF91CF911F910F9132
:100C2000FF90EF90DF90CF90BF90AF909F908F900C
:100C30007F906F905F904F903F902F9008958C30F1
:100C400069F160F4883009F460C28A3009F446C260
:100C500063E371E0C1010E94A305ECC1803209F495
:100C6000F3C18034A9F76BE5C1010E94F204F801D9
:100C7000008111810115110509F4E1C1B101C8011B
:100C80000E94CD05C8010E94CE038C01892B09F476
:100C9000D6C16CE2C1010E94F204ECCFF801C08021
:100CA000D180E280F380A7019601C701B6010E94BE
:100CB000150C8111CDCF20E030E0A901C701B601AC
:100CC0000E94150C882379F0A7019601C701B6018F
:100CD0000E94710D9B01AC01C701B6010E94150C69
:100CE000882309F4B5CF20E030E0A901C701B6019F
:100CF0000E94150C87FF08C06DE2C1010E94F2043A
:100D0000F7FAF094F7F8F09420E836E948E15BE46C
:100D1000C701B6010E940C0E87FD88C074E1A72EA2
:100D2000B12C00E210E0188E1F8AF501E058FF4F49
:100D30006591759185919491A70196010E94150C7A
:100D400018169CF0F501E859FF4F25913591459112
:100D50005491C701B6010E947B0C6B017C012F8965
:100D6000388D200F311F388F2F8B1595079534E064
:100D7000A31AB1088CEFA8168FEFB806B1F6552468
:100D80005A9420E030E0A901C701B6010E940C0E80
:100D900018160CF052C02CEA35EC47E257E3C701B5
:100DA000B6010E94150C18160CF447C0A52DB4E02E
:100DB000AB02C0011124B12CA12CFC01E859FF4F5A
:100DC0003F019C0120583F4F49013FEF531609F462
:100DD00034C0F301EA0DFB1D6591759185919491E5
:100DE00020E030E040E251E40E947B0CA701960134
:100DF0000E940C0E18169CF4F401EA0DFB1D2591BF
:100E0000359145915491C701B6010E947B0C6B014D
:100E10007C018F89988D801B910B988F8F8B1595F6
:100E200007955A9494E0A91AB108CFCF00E210E0D8
:100E300055E0552E188E1F8AA4CFC701B6010E9417
:100E4000DD0D4B015C012B013C0106E080E492E4E6
:100E5000AFE0B0E0898F9A8FAB8FBC8F102F01501D
:100E60009AE04916510461047104C8F0698D7A8DC5
:100E70008B8D9C8D2AE030E040E050E00E942A0EED
:100E8000298F3A8F4B8F5C8FC301B2012AE030E08B
:100E900040E050E00E942A0E29013A01DFCFC5014F
:100EA000B4010E941A0C9B01AC01C701B6010E945B
:100EB000700D6B017C01698D7A8D8B8D9C8D0E94EC
:100EC0001A0C9B01AC01C701B6010E947B0C2B01DF
:100ED0003C010E94DD0D6B017C010E941A0C9B01FC
:100EE000AC01C301B2010E94700D9B01AC010E94D4
:100EF000710D0E94DD0DC60ED71EE81EF91E898DEC
:100F00009A8DAB8DBC8DC816D906EA06FB06D8F0C3
:100F10009FEF891A990AA90AB90AAF89B88DAB2B34
:100F200039F1BAE08B169104A104B10408F1EF89FC
:100F3000F88D3196F88FEF8BC12CD12C7601812C56
:100F4000912C540183942AE0422E512C612C712C57
:100F5000C701B601A30192010E942A0E672B682BDC
:100F6000692B51F4111644F469017A011150F0CF44
:100F7000C12CD12C7601E7CFB501A401C1010E949B
:100F80005705112371F14E01F1E18F0E911C012FD4
:100F900054019AE0492E512C612C712C015068F0BB
:100FA000C701B601A30192010E942A0E605DD4011F
:100FB0006E934D0169017A01F1CF812F90E0BC0160
:100FC00060957095F501E81BF90B31978EE28083EF
:100FD00044275527461B570B6A0D7B1DC1010E94F4
:100FE0001B05EF89F88DEF2B29F165E6C1010E9401
:100FF000F2040F89188D17FF07C06DE2C1010E942E
:10100000F204119501951109FE0177969F018AE07E
:10101000E82EF12CC801B7010E94160E805D829364
:101020008B01672BB9F7A9014E1B5F0BBF01C101F3
:101030000E941B05D10194968D919C91E7CD6DE5A1
:10104000C1010E94F204F6CF6BE7C1010E94F204D5
:10105000F801008111810115110559F1D801169689
:10106000CC9016971796DC9062E2C1010E94F204C0
:101070007601F70161917F01662321F0C1010E9491
:10108000AD05F7CF62E2C1010E94F2046AE3C1013B
:101090000E94F204B101C8010E94CD05C8010E945E
:1010A000CE038C01892B29F06CE2C1010E94F2046D
:1010B000D2CF6DE7C5CF62E2C1010E94F204860182
:1010C000E00EF11EE016F10639F0F80161918F0192
:1010D000C1010E94AD05F6CF62E2B2CFCD90DD90A6
:1010E000ED90FC90B701A601F7FE0BC06DE2C101C7
:1010F0000E94F20444275527BA014C195D096E0974
:101100007F09C1010E9457057ECD4D915D916D9182
:101110007C91F7CF8C9168E371E0811102C06DE39F
:1011200071E0C1010E94A3056ECD1F920F920FB610
:101130000F9211242F933F938F939F93AF93BF935D
:101140008091930190919401A0919501B0919601A5
:1011500030918E0123E0230F2D3758F50196A11D04
:10116000B11D20938E018093930190939401A093DD
:101170009501B093960180918F0190919001A0917B
:101180009101B09192010196A11DB11D80938F0133
:1011900090939001A0939101B0939201BF91AF9170
:1011A0009F918F913F912F910F900FBE0F901F90A5
:1011B000189526E8230F0296A11DB11DD2CF1F92CC
:1011C0000F920FB60F9211242F933F934F935F937B
:1011D0006F937F938F939F93AF93BF93EF93FF93FF
:1011E00087E991E00E943F03FF91EF91BF91AF919A
:1011F0009F918F917F916F915F914F913F912F912F
:101200000F900FBE0F901F9018951F920F920FB660
:101210000F9211242F938F939F93EF93FF93E0915D
:10122000A701F091A8018081E091AD01F091AE019C
:1012300082FD1BC090818091B0018F5F8F732091E0
:10124000B101821741F0E091B001F0E0E956FE4FA4
:10125000958F8093B001FF91EF919F918F912F9186
:101260000F900FBE0F901F9018958081F4CFE7E983
:10127000F1E01382128288EE93E0A0E0B0E0848374
:101280009583A683B7838AE091E09183808385EC80
:1012900090E09587848784EC90E09787868780EC40
:1012A00090E0918B808B81EC90E0938B828B82EC31
:1012B00090E0958B848B86EC90E0978B868B118EDB
:1012C000128E138E148EA4E3B2E085E015968C93F3
:1012D00015978BE016968C931697E3EEF0E0E49169
:1012E0001796EC931797EFECF0E0E4911896EC93D7
:1012F000189740E85EE360E070E01D964D935D93C3
:101300006D937C9350970895CF93DF93CDB7DEB75D
:10131000C359D1400FB6F894DEBF0FBECDBF78944D
:1013200084B5826084BD84B5816084BD85B58260EA
:1013300085BD85B5816085BD80916E00816080939B
:101340006E00109281008091810082608093810004
:101350008091810081608093810080918000816014
:10136000809380008091B10084608093B10080916F
:10137000B00081608093B00080917A008460809397
:101380007A0080917A00826080937A0080917A005E
:10139000816080937A0080917A00806880937A00DF
:1013A0001092C100E091A701F091A80182E0808332
:1013B000E091A301F091A4011082E091A501F091C8
:1013C000A6018FEC80831092AF01E091AB01F09108
:1013D000AC0186E08083E091A901F091AA018081AF
:1013E00080618083E091A901F091AA0180818860E9
:1013F0008083E091A901F091AA01808180688083B7
:10140000E091A901F091AA0180818F7D808383E41E
:1014100091E00E94E40362E0809139020E94DC00C6
:101420002FB7F8948091930190919401A091950128
:10143000B09196012FBF805D9740A109B1098093BB
:101440003D0290933E02A0933F02B093400287E397
:10145000809346025E0127EDA20EB11C8E01035758
:101460001E4F4E018FE0880E911C30E0232E30E09D
:10147000332E68EB7BE080E090E00E9432010E9416
:101480006401882351F080913A028B3030F08D3026
:1014900058F08551823008F43FC0412C512C20EC8B
:1014A000622E2FE7722E1EC06091350270E090E030
:1014B00080E00E941C0C2DEC3CEC4CEC5DE30E94A7
:1014C0007B0C6B017C016091340270E090E080E065
:1014D0000E941C0C9B01AC01C701B6010E94710D5A
:1014E0002B013C016AE070E080E090E00E94320154
:1014F0000E946401882349F080913A028C3009F4FB
:101500009EC0E0F48B3009F440C0C12CD12C80EC9B
:10151000E82E8FE7F82E6CC060913402709135028E
:1015200076276727762790E080E00E941A0C2DEC42
:101530003CEC4CEC5DE30E947B0CD2CF85518230B9
:1015400020F780913602CD56DE4F8883C359D140B3
:10155000682F70E0762F662766277F7780913702A5
:10156000682B90E080E00E941A0C2DEC3CEC4CECD7
:101570005DE30E947B0C6B017C01CD56DE4FE88160
:10158000C359D140E7FF34C084C06091360270E097
:1015900090E080E00E941A0C6B017C01E091370220
:1015A000CD56DE4FE883C359D140E7FF0AC0AC01F6
:1015B0009B0160E070E080E89FEB0E94700D6B0182
:1015C0007C01CD56DE4F6881C359D1406F7070E009
:1015D00090E080E00E941C0C2DEC3CEC4CEC5DE3B8
:1015E0000E947B0CA70196010E94710D6B017C018A
:1015F0006AE070E080E090E00E943201A301920175
:10160000C301B2010E94110E811109C0A701960108
:10161000C701B6010E94110E882309F43FC089E674
:1016200091E00E94E4032114310409F422CF0E94C6
:101630002B03882309F415CF0E94000012CFF091EC
:101640003602CD56DE4FF883C359D1406F2F70E07C
:1016500090E080E00E941A0C6B017C0160913702DF
:101660006F7070E090E080E00E941C0C2DEC3CEC70
:101670004CEC5DE30E947B0CA70196010E94710D6A
:101680006B017C01CD56DE4F2881C359D14027FF25
:10169000AFCFF7FAF094F7F8F094AACF9A82898244
:1016A0009C828B82BE82AD82B886AF8219861E86EE
:1016B000AE014F5F5F4F6AE771E0CE010A960E946C
:1016C000FB03FC01892B41F0948190789C6094830A
:1016D000C082D182E282F382AE014F5F5F4F66E843
:1016E00071E0CE010A960E94FB03FC01892B41F0B8
:1016F000948190789C60948340825182628273824C
:10170000F80111821082138212821582148270E015
:1017100060E0C8010E947D04F801208131818111BF
:101720007CC02115310519F0C9010E94EE0EF801A7
:10173000118210821582148213821282C759DE4FE1
:1017400019830883C956D140C557DE4F19821882C4
:10175000CB58D14084E2FE01E759FE4FDE01AB5B7E
:10176000BE4F01900D928A95E1F784E2FE01EB5B9A
:10177000FE4FDE01AF5DBE4F01900D928A95E1F7FD
:1017800084E2FE01EF5DFE4FDE01A350BF4F0190EA
:101790000D928A95E1F784E2FE01E350FF4FD501F7
:1017A00001900D928A95E1F7F50115A214A2CE01E0
:1017B00083509F4F0E94A504CE018F5D9E4F0E94D3
:1017C000A504B501CE010A960E94CD05C5010E946F
:1017D000A504CE018B5B9E4F0E94A504CE018759C4
:1017E0009E4F0E94A504F80144815581608171815A
:1017F00087E991E00E94C1020E94DC0360ED77E07E
:1018000080E090E00E943201F80180819181009790
:1018100009F409CF0E94EE0E06CF158214826BE206
:1018200071E0C9010E943D1089CF0E94570C08F455
:1018300081E00895E89409C097FB3EF49095809567
:10184000709561957F4F8F4F9F4F9923A9F0F92F86
:1018500096E9BB279395F695879577956795B79504
:10186000F111F8CFFAF4BB0F11F460FF1BC06F5FEA
:101870007F4F8F4F9F4F16C0882311F096E911C0FC
:10188000772321F09EE8872F762F05C0662371F01D
:1018900096E8862F70E060E02AF09A95660F771F31
:1018A000881FDAF7880F9695879597F90895990F0D
:1018B0000008550FAA0BE0E8FEEF16161706E8071A
:1018C000F907C0F012161306E407F50798F0621B3B
:1018D000730B840B950B39F40A2661F0232B242B10
:1018E000252B21F408950A2609F4A140A6958FEF2F
:1018F000811D811D08950E948E0C0C94FF0C0E9486
:10190000F10C38F00E94F80C20F0952311F00C94A3
:10191000E80C0C94EE0C11240C94330D0E94100D65
:1019200070F3959FC1F3950F50E0551F629FF00132
:10193000729FBB27F00DB11D639FAA27F00DB11D4B
:10194000AA1F649F6627B00DA11D661F829F2227D4
:10195000B00DA11D621F739FB00DA11D621F839F5B
:10196000A00D611D221F749F3327A00D611D231F31
:10197000849F600D211D822F762F6A2F11249F577F
:1019800050409AF0F1F088234AF0EE0FFF1FBB1F82
:10199000661F771F881F91505040A9F79E3F510541
:1019A00080F00C94E80C0C94330D5F3FE4F3983E08
:1019B000D4F3869577956795B795F795E7959F5FEB
:1019C000C1F7FE2B880F911D9695879597F908957D
:1019D00097F99F6780E870E060E008959FEF80ECE2
:1019E000089500240A941616170618060906089585
:1019F00000240A9412161306140605060895092EEB
:101A00000394000C11F4882352F0BB0F40F4BF2B59
:101A100011F460FF04C06F5F7F4F8F4F9F4F089599
:101A200057FD9058440F551F59F05F3F71F047958F
:101A3000880F97FB991F61F09F3F79F08795089574
:101A4000121613061406551FF2CF4695F1DF08C093
:101A5000161617061806991FF1CF869571056105B0
:101A600008940895E894BB2766277727CB0197F958
:101A700008952F923F924F925F926F927F928F9232
:101A80009F92AF92BF92CF92DF92EF92FF920F930D
:101A90001F93CF93DF93CDB7DEB7CA1BDB0B0FB617
:101AA000F894DEBF0FBECDBF09942A8839884888D4
:101AB0005F846E847D848C849B84AA84B984C8846A
:101AC000DF80EE80FD800C811B81AA81B981CE0F61
:101AD000D11D0FB6F894DEBF0FBECDBFED01089546
:101AE0005058BB27AA270E94880D0C94FF0C0E9417
:101AF000F10C38F00E94F80C20F039F49F3F19F4F3
:101B000026F40C94EE0C0EF4E095E7FB0C94E80C34
:101B1000E92F0E94100D58F3BA1762077307840764
:101B2000950720F079F4A6F50C94320D0EF4E095AB
:101B30000B2EBA2FA02D0B01B90190010C01CA0187
:101B4000A0011124FF27591B99F0593F50F4503E32
:101B500068F11A16F040A22F232F342F4427585F24
:101B6000F3CF469537952795A795F0405395C9F73C
:101B70007EF41F16BA0B620B730B840BBAF09150F4
:101B8000A1F0FF0FBB1F661F771F881FC2F70EC093
:101B9000BA0F621F731F841F48F487957795679566
:101BA000B795F7959E3F08F0B0CF9395880F08F052
:101BB0009927EE0F9795879508950E94180D88F044
:101BC0009F5798F0B92F9927B751B0F0E1F0660F01
:101BD000771F881F991F1AF0BA95C9F714C0B13042
:101BE00091F00E94320DB1E008950C94320D672FF0
:101BF000782F8827B85F39F0B93FCCF38695779571
:101C00006795B395D9F73EF4909580957095619559
:101C10007F4F8F4F9F4F08950E94570C08F48FEF0E
:101C200008950E94570C880B990B0895AA1BBB1BA3
:101C300051E107C0AA1FBB1FA617B70710F0A61BCC
:101C4000B70B881F991F5A95A9F780959095BC01ED
:101C5000CD010895A1E21A2EAA1BBB1BFD010DC0E8
:101C6000AA1FBB1FEE1FFF1FA217B307E407F5074C
:101C700020F0A21BB30BE40BF50B661F771F881F28
:101C8000991F1A9469F760957095809590959B01BE
:101C9000AC01BD01CF010895EE0FFF1F0590F49137
:101CA000E02D09940F931F93CF93DF93823091051A
:101CB00010F482E090E0E0914902F0914A0230E0B5
:101CC00020E0B0E0A0E0309799F42115310509F447
:101CD0004AC0281B390B24303105D8F58A819B81F5
:101CE0006115710589F1FB0193838283FE0111C0A7
:101CF000408151810281138148175907E0F048174C
:101D0000590799F4109761F012960C931297139655
:101D10001C933296CF01DF91CF911F910F910895BF
:101D20000093490210934A02F4CF2115310551F076
:101D30004217530738F0A901DB019A01BD01DF0109
:101D4000F801C1CFEF01F9CF90934A028093490285
:101D5000CDCFFE01E20FF31F819391932250310901
:101D600039832883D7CF2091470230914802232B13
:101D700041F42091020130910301309348022093F5
:101D8000470220910001309101012115310541F4F4
:101D90002DB73EB74091040150910501241B350B2E
:101DA000E0914702F0914802E217F307A0F42E1BDE
:101DB0003F0B2817390778F0AC014E5F5F4F2417AF
:101DC000350748F04E0F5F1F50934802409347027B
:101DD000819391939FCFF0E0E0E09CCFCF93DF938E
:101DE0000097E9F0FC01329713821282A091490218
:101DF000B0914A02ED0130E020E01097A1F420817B
:101E00003181820F931F2091470230914802281799
:101E1000390709F061C0F0934802E0934702DF916F
:101E2000CF910895EA01CE17DF07E8F54A815B817B
:101E30009E0141155105B1F7E901FB83EA83499100
:101E40005991C40FD51FEC17FD0761F48081918172
:101E50000296840F951FE90199838883828193817B
:101E60009B838A83F0E0E0E012968D919C9113971A
:101E70000097B9F52D913C911197CD010296820FF3
:101E8000931F20914702309148022817390739F6ED
:101E9000309751F510924A0210924902B0934802CD
:101EA000A0934702BCCFD383C28340815181840F6A
:101EB000951FC817D90761F44E5F5F4F88819981DC
:101EC000480F591F518340838A819B81938382836A
:101ED0002115310509F0B0CFF0934A02E093490291
:101EE0009ECFFD01DC01C0CF13821282D7CFB0E0BC
:101EF000A0E0EDE7FFE00C943B0D8C01009751F45E
:101F0000CB010E94520E8C01C801CDB7DEB7E0E1D3
:101F10000C94570DFC01E60FF71F9C01225031096C
:101F2000E217F30708F49DC0D901CD91DC91119718
:101F3000C617D70798F0C530D10530F3CE01049706
:101F40008617970708F3C61BD70B2297C193D19327
:101F50006D937C93CF010E94EE0ED6CF5B01AC1A3D
:101F6000BD0A4C018C0E9D1EA0914902B0914A02FF
:101F7000512C412CF12CE12C109731F58091470226
:101F8000909148028815990509F05CC046165706DD
:101F900008F058C08091000190910101009741F430
:101FA0008DB79EB74091040150910501841B950B9C
:101FB000E817F90708F055C0F0934802E09347028C
:101FC000F90171836083A0CF8D919C911197129636
:101FD0006C90129713967C901397A815B90559F534
:101FE0006C0142E0C40ED11CCA14DB0420F1AC0128
:101FF0004A195B09DA011296159780F062827382A2
:1020000051834083D9016D937C93E114F10471F005
:10201000D7011396FC93EE93129776CF22968C0FEE
:102020009D1FF90191838083F301EFCFF0934A0262
:10203000E093490269CF4816590608F42C017D0146
:10204000D3019ACFCB010E94520E7C01009749F038
:10205000AE01B8010E943410C8010E94EE0E870143
:1020600053CF10E000E050CFFB01DC0102C0019033
:102070000D9241505040D8F70895FB01DC010190CA
:0C2080000D920020E1F70895F894FFCFC6
:10208C0000004B028000000000006103C102EE0260
:10209C00AE031F03FD0211030D0A002F2F22225C39
:1020AC005C6208660C6E0A720D7409005C75303047
:1020BC003030006E756C6C00747275650066616C06
:1020CC0073650053656E736F722064652054656D83
:1020DC00706572617475726120792048756D6564E4
:1020EC00616420444854313100416C676F20536166
:1020FC006C696F206D616C21210074656D70657267
:0E210C0061747572610068756D6564616400D0
:00000001FF
