:100000000C94DF000C9407010C9407010C94070179
:100010000C9407010C9407010C9407010C94070140
:100020000C9407010C9407010C9407010C94070130
:100030000C9407010C9407010C9407010C94070120
:100040000C94E1040C9407010C9451050C942B05BD
:100050000C9407010C9407010C9407010C94070100
:100060000C9407010C94070100407A10F35A00A089
:10007000724E18090010A5D4E80000E87648170071
:1000800000E40B54020000CA9A3B000000E1F505B1
:10009000000080969800000040420F000000A086FB
:1000A00001000000102700000000E803000000002D
:1000B0006400000000000A000000000001000000D1
:1000C00000002C76D888DC674F0823DFC1DFAE59EB
:1000D000E1B1B796E5E3E453C63AE651997696E87E
:1000E000E6C28426EB898C9B62ED407C6FFCEFBC02
:1000F0009C9F40F2BAA56FA5F490055A2AF75C932D
:100100006B6CF9676DC11BFCE0E40D47FEF520E662
:10011000B500D0ED902E0300943577050080841E45
:10012000080000204E0A000000C80C333333330FA0
:10013000986E12831141EF8D2114893BE65516CF3D
:10014000FEE6DB18D1844B381BF77C1D901DA4BB49
:10015000E424203284725E228100C9F124ECA1E5FE
:100160003D2700000000240027002A0000000000B6
:10017000250028002B0000000008000201000003F9
:100180000407000000000000000000000000230041
:1001900026002900040404040404040402020202E8
:1001A000020203030303030301020408102040803A
:1001B0000102040810200102040810208305112404
:1001C0001FBECFEFD8E0DEBFCDBF22E0A4E7B1E095
:1001D00001C01D92A133B207E1F711E0A0E0B1E048
:1001E000E0EBFBE102C005900D92A437B107D9F70F
:1001F00010E0CFEDD0E004C02197FE010E94DE0B9D
:10020000CE3DD107C9F70E94D0050C94D60D0C94B1
:100210000000CF92DF92EF92FF92CF93DF93B091E5
:100220002102A0E08111AB2F8091220290E0880F83
:10023000991FAC0146575E4FC0902702D09028020C
:10024000E0902902F0902A0230E020E0FA01C59106
:10025000D491E881B90190E080E0EB23EA130AC071
:100260002F5F3F4F6C157D058E059F0578F36FEF6F
:100270007FEFCB01DF91CF91FF90EF90DF90CF9098
:100280000895CF93DF9390E0FC01E855FE4F249151
:100290008C569E4FFC0184918823D1F090E0880F0A
:1002A000991FFC01EE59FE4FA591B491FC01E45950
:1002B000FE4FC591D491623071F49FB7F8943C9190
:1002C000822F809583238C93E8812E2B28839FBFD8
:1002D000DF91CF9108958FB7F894EC912E2B2C934A
:1002E0008FBFF6CF3FB7F89480917501909176015A
:1002F000A0917701B091780126B5A89B05C02F3F4A
:1003000019F00196A11DB11D3FBFBA2FA92F982F3B
:100310008827BC01CD01620F711D811D911D42E036
:10032000660F771F881F991F4A95D1F708958F92FE
:100330009F92AF92BF92CF92DF92EF92FF924B01CA
:100340005C010E9472016B017C010E9472016C19B8
:100350007D098E099F09683E734081059105A8F3C8
:1003600021E0821A9108A108B10888EEC80E83E046
:10037000D81EE11CF11C81149104A104B10429F7D9
:10038000FF90EF90DF90CF90BF90AF909F908F90B5
:1003900008958F929F92AF92BF92EF92FF920F9328
:1003A0001F93CF93DF93CDB7DEB7C054D1400FB6C4
:1003B000F894DEBF0FBECDBF2FB7F89480917901BE
:1003C00090917A01A0917B01B0917C012FBF409167
:1003D00023025091240260912502709126028C0123
:1003E0009D01041B150B260B370BB901A801403DDD
:1003F000574061057105A0F480912B02C05CDE4F6F
:100400000FB6F894DEBF0FBECDBFDF91CF911F9125
:100410000F91FF90EF90BF90AF909F908F900895B5
:100420008093230290932402A0932502B093260286
:1004300010921E0210921D0210921C0210921B02BA
:1004400010921A0262E080911F020E94410161E055
:1004500070E080E090E00E94970161E080911F02CF
:100460000E94410180911F0290E0FC01EA58FE4F7A
:100470002491FC01E855FE4F3491FC01EC56FE4FEF
:10048000E491EE23D9F0222359F0233009F44BC034
:1004900008F03EC0213009F44CC0223009F44DC0B0
:1004A000F0E0EE0FFF1FE459FE4FA591B4918FB716
:1004B000F894EC9130953E233C938FBF80912002BD
:1004C0008551823008F046C08BE291E10197F1F747
:1004D00062E080911F020E94410180912C0290E015
:1004E0008230910538F0880F991F880F991F059762
:1004F0000197F1F7F89480E00E9409016F3F7F4F68
:100500008F4F9F4F71F510922B02789480E076CF39
:100510002730B1F02830D1F0243009F0C1CF8091DC
:1005200080008F7D03C0809180008F778093800052
:10053000B7CF84B58F7784BDB3CF84B58F7DFBCF24
:100540008091B0008F778093B000AACF8091B000E7
:100550008F7DF9CF64E170E080E090E00E94970128
:10056000B7CF81E00E9409016F3F7F4F8F4F9F4FB0
:1005700051F2CE0101967C015E019FEBA91A9EEF1C
:10058000B90A870180E00E940901F8016083718344
:100590008283938381E00E940901F801648375835B
:1005A00086839783085F1F4FA016B10659F778948A
:1005B00030E020E0F70180809180A280B380448108
:1005C000558166817781FFEF8F169F06AF06BF06C4
:1005D00031F04F3F0FEF50076007700719F410928A
:1005E0002B0294CFF90183E0F595E7958A95E1F721
:1005F000E65EFD4F8081880F84169506A606B70635
:1006000018F180832F5F3F4F18E0E10EF11C283274
:10061000310581F640911E0220911A0280911B0241
:10062000280F3327331F80911C02280F311D809122
:100630001D02820F932F911D99274817190679F6ED
:1006400081E080932B02DACE8160DBCFAF92BF9244
:10065000CF92DF92EF92FF920F931F93CF93DF938E
:100660006C017B018B01040F151FEB015E01AE18BD
:10067000BF08C017D10759F06991D601ED91FC91DF
:100680000190F081E02DC6010995892B79F7C5010C
:10069000DF91CF911F910F91FF90EF90DF90CF905E
:1006A000BF90AF900895FC01538D448D252F30E00D
:1006B000842F90E0821B930B541710F0CF9608956F
:1006C00001970895FC01918D828D981761F0A28D9C
:1006D000AE0FBF2FB11D5D968C91928D9F5F9F7362
:1006E000928F90E008958FEF9FEF0895FC01918D18
:1006F000828D981731F0828DE80FF11D858D90E085
:1007000008958FEF9FEF0895FC01918D228D892F21
:1007100090E0805C9F4F821B91098F739927089509
:100720008DE791E00E94840321E0892B09F420E009
:10073000822F089580E090E0892B29F00E94900399
:1007400081110C9400000895FC01A48DA80FB92F0D
:10075000B11DA35ABF4F2C91848D90E001968F73E9
:100760009927848FA689B7892C93A089B1898C9108
:10077000837080648C93938D848D981306C0028857
:10078000F389E02D80818F7D80830895EF92FF9221
:100790000F931F93CF93DF93EC0181E0888F9B8DA4
:1007A0008C8D98131AC0E889F989808185FF15C05E
:1007B0009FB7F894EE89FF896083E889F989808181
:1007C0008370806480839FBF81E090E0DF91CF9150
:1007D0001F910F91FF90EF900895F62E0B8D10E072
:1007E0000F5F1F4F0F731127E02E8C8D8E110CC0E1
:1007F0000FB607FCFACFE889F989808185FFF5CF2C
:10080000CE010E94A403F1CFEB8DEC0FFD2FF11D63
:10081000E35AFF4FF0829FB7F8940B8FEA89FB8968
:1008200080818062CFCFCF93DF93EC01888D8823C6
:10083000B9F0AA89BB89E889F9898C9185FD03C043
:10084000808186FD0DC00FB607FCF7CF8C9185FF28
:10085000F2CF808185FFEDCFCE010E94A403E9CFC6
:10086000DF91CF91089542E050E068E171E08DE7BB
:1008700091E00C942603CF93DF93FC0101900020BC
:10088000E9F73197AF01481B590BBC018DE791E0A7
:100890000E942603EC010E9433048C0F9D1FDF9100
:1008A000CF9108950F931F93CF93DF93EC0188812D
:1008B0009981009759F02A813B812617370730F03C
:1008C00081E0DF91CF911F910F9108958B016F5FB0
:1008D0007F4F0E94090D009759F0998388831B83ED
:1008E0000A832C813D81232B59F7FC011082E8CF2C
:1008F00080E0E7CFEF92FF920F931F93CF93DF93A8
:100900006115710541F480E0DF91CF911F910F9146
:10091000FF90EF90089541155105B1F07B01EC0176
:100920000C811D81040F151FB8010E9452048823F9
:1009300051F3288139818C819D81B701820F931FEA
:100940000E94CF0D1D830C8381E0DECFFB0101905F
:100950000020E9F73197AF01461B570B0C947A043E
:10096000EF92FF920F931F93CF93DF93CDB7DEB734
:1009700064970FB6F894DEBF0FBECDBF7C01CB01EC
:10098000BA018E010F5F1F4F22E044E00E94C107B1
:10099000FC0101900020E9F73197AF01481B590B8A
:1009A000BC01C7010E947A0464960FB6F894DEBFBA
:1009B0000FBECDBFDF91CF911F910F91FF90EF90B0
:1009C00008951F920F920FB60F9211242F933F9309
:1009D0008F939F93AF93BF938091790190917A0108
:1009E000A0917B01B0917C013091740123E0230F31
:1009F0002D3758F50196A11DB11D209374018093E8
:100A0000790190937A01A0937B01B0937C0180914E
:100A1000750190917601A0917701B09178010196CE
:100A2000A11DB11D8093750190937601A09377016C
:100A3000B0937801BF91AF919F918F913F912F918A
:100A40000F900FBE0F901F90189526E8230F029667
:100A5000A11DB11DD2CF1F920F920FB60F9211247C
:100A60002F933F934F935F936F937F938F939F93B6
:100A7000AF93BF93EF93FF938DE791E00E94A403A0
:100A8000FF91EF91BF91AF919F918F917F916F9166
:100A90005F914F913F912F910F900FBE0F901F903C
:100AA00018951F920F920FB60F9211242F938F93C8
:100AB0009F93EF93FF93E0918D01F0918E018081E0
:100AC000E0919301F091940182FD1BC0908180918F
:100AD00096018F5F8F7320919701821741F0E0910B
:100AE0009601F0E0E358FE4F958F80939601FF91B9
:100AF000EF919F918F912F910F900FBE0F901F90AC
:100B000018958081F4CFEDE7F1E01382128288EE30
:100B100093E0A0E0B0E084839583A683B7838AE066
:100B200091E09183808385EC90E09587848784ECC5
:100B300090E09787868780EC90E0918B808B81ECAA
:100B400090E0938B828B82EC90E0958B848B86EC8B
:100B500090E0978B868B118E128E138E148EAAE1E5
:100B6000B2E085E015968C9315978BE016968C93E2
:100B70001697EDEAF1E0E4911796EC931797E9E9FF
:100B8000F1E0E4911896EC93189740E85EE360E09A
:100B900070E01D964D935D936D937C9350970895EF
:100BA000CF93DF9300D000D000D0CDB7DEB77894DC
:100BB00084B5826084BD84B5816084BD85B5826062
:100BC00085BD85B5816085BD80916E008160809313
:100BD0006E0010928100809181008260809381007C
:100BE000809181008160809381008091800081608C
:100BF000809380008091B10084608093B1008091E7
:100C0000B00081608093B00080917A00846080930E
:100C10007A0080917A00826080937A0080917A00D5
:100C2000816080937A0080917A00806880937A0056
:100C30001092C100E0918D01F0918E0182E08083DD
:100C4000E0918901F0918A011082E0918B01F0918D
:100C50008C018FEC808310929501E0919101F091CD
:100C6000920186E08083E0918F01F0919001808174
:100C700080618083E0918F01F09190018081886094
:100C80008083E0918F01F091900180818068808362
:100C9000E0918F01F091900180818F7D80838BE1C5
:100CA00091E00E943B0462E080911F020E9441019A
:100CB0002FB7F8948091790190917A01A0917B01EE
:100CC000B0917C012FBF805D9740A109B10980934D
:100CD000230290932402A0932502B093260287E377
:100CE00080932C0200E010E068EB7BE080E090E075
:100CF0000E9497010E94C901882349F08091200237
:100D00008B3028F08D3050F085518230F0F1812CFD
:100D1000912C20ECA22E2FE7B22E1EC060911B0258
:100D200070E090E080E00E94180A2DEC3CEC4CEC66
:100D30005DE30E94770A6B017C0160911A0270E00A
:100D400090E080E00E94180A9B01AC01C701B60147
:100D50000E946D0B4B015C016AE070E080E090E066
:100D60000E9497010E94C901882341F080912002CE
:100D70008C3009F485C0D8F48B3091F1C12CD12C82
:100D800080ECE82E8FE7F82E55C060911A02709122
:100D90001B0276276727762790E080E00E94160ADC
:100DA0002DEC3CEC4CEC5DE30E94770AD3CF8551EF
:100DB000823020F770901C02672D70E0762F662736
:100DC00066277F7780911D02682B90E080E00E946B
:100DD000160A2DEC3CEC4CEC5DE30E94770A6CC0EB
:100DE00060911C0270E090E080E00E94160A2B01E6
:100DF0003C01F0901D02F7FE0AC0AC019B0160E0CF
:100E000070E080E89FEB0E946C0B2B013C016F2D82
:100E10006F7070E090E080E00E94180A2DEC3CECCE
:100E20004CEC5DE30E94770AA30192010E946D0BD6
:100E30006B017C016AE070E080E090E00E94970125
:100E4000A5019401C501B4010E94D90B811108C00C
:100E5000A7019601C701B6010E94D90B8823A9F109
:100E600081E491E00E943B040115110509F43CCF97
:100E70000E949003882309F437CF0E94000034CFEA
:100E800070901C02672D70E090E080E00E94160ACE
:100E90006B017C0160911D026F7070E090E080E05A
:100EA0000E94180A2DEC3CEC4CEC5DE30E94770AA2
:100EB000A70196010E946D0B6B017C0177FEBACFF2
:100EC000F7FAF094F7F8F094B5CF1A8219821C82E1
:100ED0001B821E821D8261E070E0CE0101960E949D
:100EE000520429813A81811142C02115310519F03E
:100EF000C9010E94800C1A8219821E821D821C82E6
:100F00001B8264E571E0CE0101960E94A604B70140
:100F1000A601CE0101960E94B00464E671E0CE0104
:100F200001960E94A60466E671E0CE0101960E9439
:100F3000A604B501A401CE0101960E94B00462E7A7
:100F400071E0CE0101960E94A6044D815E81698107
:100F50007A818DE791E00E9426030E943304898103
:100F60009A81009709F480CF0E94800C7DCF81E0A8
:100F700090E09E838D8362E571E0C9010E94CF0DF0
:100F8000C0CFEF920F931F93CF93DF93E80134E02C
:100F900047FD34E1042E000C550B57FF03C051955B
:100FA00041955109E32E022F242FAE010E94DF0745
:100FB000CE01DF91CF911F910F91EF900895A9E09D
:100FC000B0E0E5EEF7E00C943B0B6A01F22EB02E98
:100FD000102FFBE3AF2EA01608F41BE31F5F012FB9
:100FE00027E0AE014F5F5F4F0E943E09BC0189813F
:100FF000982F9970913009F43FC09BE2E1FC04C046
:101000009E2D9170E0FC3AC05E2D5071E82FE87083
:1010100083FF46C084E0911101C083E0EF2DE81BFF
:101020008F1508F0E0E0D6018E2F20E2552351F114
:10103000992329F0D6019C93C60101966C01960173
:101040002D5F3F4FE2FE24C08EE4D6018C9391E4E5
:1010500011969C93119712968C93D9018E2F90E242
:1010600081111BC0E20FF32FF11D10828EEF9FEF55
:101070002996ECE00C94570B9DE2C6CF90E2C4CFCA
:101080002D9381508111FCCFCE0ED11CE0E0D0CF4A
:101090008EE6D6018C9391E6DBCF9D938150E0CF15
:1010A000482F447082FF3DC084E0911101C083E06D
:1010B0008F1510F4EF2DE81BD6018E2F20E255235B
:1010C00009F1992329F0D6019C93C60101966C0180
:1010D00096012D5F3F4FE2FE1BC089E4D6018C9341
:1010E0008EE411968C93119786E412968C93D90115
:1010F0008E2F90E2882309F4B5CF9D938150FACFCB
:101100002D9381508111FCCFCE0ED11CE0E0D9CFC0
:1011100089E6D6018C938EE611968C93119786E61C
:10112000E4CF9B0177FF02C030E020E0A1E0B0E017
:10113000911102C0B0E0A0E0F9013196AE0FBF1FDF
:101140008B2C912CBB2009F461C05401EFEFAE1A37
:10115000BE0AAA0DBB1DFA161B0619F014F04F2D7E
:101160004A1B511188C0E3FC59C07601A42FB0E29C
:10117000A1114FC0C40ED11C992309F45BC040E0FB
:10118000D6011196F60190836D01552309F448C0EC
:10119000012F060F9A81582F507184FF03C091339D
:1011A00009F4015010160CF047C0093008F008E0AF
:1011B000EEE2FE2E5B01A01AB108850191948194A4
:1011C00091082F3F320729F4D601FC92F60131969F
:1011D0006F016217730794F1021713077CF5DB01A7
:1011E000A21BB30BAA24A394B12CAC0EBD1EAA0D56
:1011F000BB1D11968C9121503109D60111962815ED
:101200003905F4F0F60180836D01DBCFB12CA12C00
:10121000A0CFF701B1937F01A150AACF9111B0CF18
:10122000D601942F50E302C05D9391509111FCCFF1
:10123000C40ED11C40E0ACCF01E0BACF80E3DBCFDD
:101240006217730731F4963388F4953311F45523FC
:1012500069F0F6018083FD01842F90E2811108C0BE
:10126000A40FB11D1C9290E080E002CF81E3F1CF8A
:1012700091938150F3CF911183CF8ACF283008F01A
:1012800027E03327DA01990F311D87FD9160009621
:101290006105710539F432602E5F3D9330E32A9584
:1012A000E1F708959F3F30F080387105610509F03E
:1012B0003C5F3C5F3D93913008F08068911DDF9367
:1012C000CF931F930F93FF92EF92192F987F9695CC
:1012D000E92F96959695E90FFF27EE53FF4F992733
:1012E0003327EE24FF24A701E70105900894079413
:1012F00028F4360FE71EF81E491F511D660F771F91
:10130000881F991F0694A1F70590079428F4E70E0B
:10131000F81E491F561FC11D770F881F991F661F92
:101320000694A1F70590079428F4F80E491F561F5C
:10133000C71FD11D880F991F661F771F0694A1F73D
:101340000590079420F4490F561FC71FD81F990F07
:10135000661F771F881F0694A9F784911095177050
:1013600041F0D695C79557954795F794E7941A9508
:10137000C1F7E8E6F0E06894159015913591659114
:10138000959105907FE27395E118F10A430B560B96
:10139000C90BD009C0F7E10CF11E431F561FC91F2E
:1013A000D01D7EF4703311F48A95E6CFE894015095
:1013B00030F0080F0AF40027021708F4202F2395B5
:1013C000022F7A3328F079E37D932A95E9F710C04C
:1013D0007D932A9589F60694979567953795179585
:1013E0001794E118F10A430B560BC90BD00998F07A
:1013F00023957E9173957A3308F070E37C932013E4
:10140000B8F77E9170617D9330F0839571E37D93A1
:1014100070E32A95E1F71124EF90FF900F911F914F
:10142000CF91DF91992787FD90950895E89409C0A1
:1014300097FB3EF490958095709561957F4F8F4F07
:101440009F4F9923A9F0F92F96E9BB279395F6951D
:10145000879577956795B795F111F8CFFAF4BB0F9B
:1014600011F460FF1BC06F5F7F4F8F4F9F4F16C0FF
:10147000882311F096E911C0772321F09EE8872F89
:10148000762F05C0662371F096E8862F70E060E045
:101490002AF09A95660F771F881FDAF7880F9695BE
:1014A000879597F90895990F0008550FAA0BE0E862
:1014B000FEEF16161706E807F907C0F01216130616
:1014C000E407F50798F0621B730B840B950B39F456
:1014D0000A2661F0232B242B252B21F408950A26BC
:1014E00009F4A140A6958FEF811D811D08950E94EA
:1014F0008A0A0C94FB0A0E94ED0A38F00E94F40A52
:1015000020F0952311F00C94E40A0C94EA0A1124BB
:101510000C942F0B0E940C0B70F3959FC1F3950F49
:1015200050E0551F629FF001729FBB27F00DB11D67
:10153000639FAA27F00DB11DAA1F649F6627B00DF7
:10154000A11D661F829F2227B00DA11D621F739FE0
:10155000B00DA11D621F839FA00D611D221F749FEE
:101560003327A00D611D231F849F600D211D822F35
:10157000762F6A2F11249F5750409AF0F1F088235C
:101580004AF0EE0FFF1FBB1F661F771F881F915089
:101590005040A9F79E3F510580F00C94E40A0C944A
:1015A0002F0B5F3FE4F3983ED4F3869577956795CC
:1015B000B795F795E7959F5FC1F7FE2B880F911DB3
:1015C0009695879597F9089597F99F6780E870E059
:1015D00060E008959FEF80EC089500240A941616A9
:1015E000170618060906089500240A941216130611
:1015F000140605060895092E0394000C11F488239F
:1016000052F0BB0F40F4BF2B11F460FF04C06F5FBA
:101610007F4F8F4F9F4F089557FD9058440F551F90
:1016200059F05F3F71F04795880F97FB991F61F064
:101630009F3F79F087950895121613061406551FDB
:10164000F2CF4695F1DF08C0161617061806991F47
:10165000F1CF86957105610508940895E894BB273C
:1016600066277727CB0197F908952F923F924F92E3
:101670005F926F927F928F929F92AF92BF92CF9222
:10168000DF92EF92FF920F931F93CF93DF93CDB72B
:10169000DEB7CA1BDB0B0FB6F894DEBF0FBECDBFA3
:1016A00009942A88398848885F846E847D848C8474
:1016B0009B84AA84B984C884DF80EE80FD800C817D
:1016C0001B81AA81B981CE0FD11D0FB6F894DEBF60
:1016D0000FBECDBFED0108955058BB27AA270E9429
:1016E000840B0C94FB0A0E94ED0A38F00E94F40A65
:1016F00020F039F49F3F19F426F40C94EA0A0EF412
:10170000E095E7FB0C94E40AE92F0E940C0B58F3D8
:10171000BA17620773078407950720F079F4A6F5D6
:101720000C942E0B0EF4E0950B2EBA2FA02D0B016E
:10173000B90190010C01CA01A0011124FF27591B16
:1017400099F0593F50F4503E68F11A16F040A22F1C
:10175000232F342F4427585FF3CF4695379527958D
:10176000A795F0405395C9F77EF41F16BA0B620B8C
:10177000730B840BBAF09150A1F0FF0FBB1F661FD3
:10178000771F881FC2F70EC0BA0F621F731F841F16
:1017900048F4879577956795B795F7959E3F08F03C
:1017A000B0CF9395880F08F09927EE0F97958795FE
:1017B00008950E94530A880B990B0895EE0FFF1F9E
:1017C0000590F491E02D09940F931F93CF93DF932D
:1017D0008230910510F482E090E0E0912F02F091C8
:1017E000300230E020E0B0E0A0E0309799F421151D
:1017F000310509F44AC0281B390B24303105D8F5CE
:101800008A819B816115710589F1FB019383828334
:10181000FE0111C04081518102811381481759078F
:10182000E0F04817590799F4109761F012960C935D
:10183000129713961C933296CF01DF91CF911F918F
:101840000F91089500932F0210933002F4CF2115C9
:10185000310551F04217530738F0A901DB019A0115
:10186000BD01DF01F801C1CFEF01F9CF9093300244
:1018700080932F02CDCFFE01E20FF31F819391934E
:101880002250310939832883D7CF20912D023091FE
:101890002E02232B41F42091020130910301309359
:1018A0002E0220932D02209100013091010121157B
:1018B000310541F42DB73EB7409104015091050127
:1018C000241B350BE0912D02F0912E02E217F30755
:1018D000A0F42E1B3F0B2817390778F0AC014E5FA0
:1018E0005F4F2417350748F04E0F5F1F50932E02AD
:1018F00040932D02819391939FCFF0E0E0E09CCF45
:10190000CF93DF930097E9F0FC01329713821282A4
:10191000A0912F02B0913002ED0130E020E010974D
:10192000A1F420813181820F931F20912D023091EB
:101930002E022817390709F061C0F0932E02E093B8
:101940002D02DF91CF910895EA01CE17DF07E8F568
:101950004A815B819E0141155105B1F7E901FB8385
:10196000EA8349915991C40FD51FEC17FD0761F423
:10197000808191810296840F951FE9019983888364
:10198000828193819B838A83F0E0E0E012968D91BF
:101990009C9113970097B9F52D913C911197CD012A
:1019A0000296820F931F20912D0230912E0228174C
:1019B000390739F6309751F51092300210922F0204
:1019C000B0932E02A0932D02BCCFD383C28340815B
:1019D0005181840F951FC817D90761F44E5F5F4F7F
:1019E00088819981480F591F518340838A819B8147
:1019F000938382832115310509F0B0CFF093300233
:101A0000E0932F029ECFFD01DC01C0CF1382128232
:101A1000D7CFB0E0A0E0EFE0FDE00C94370B8C01F5
:101A2000009751F4CB010E94E40B8C01C801CDB7A3
:101A3000DEB7E0E10C94530BFC01E60FF71F9C01AD
:101A400022503109E217F30708F49DC0D901CD9166
:101A5000DC911197C617D70798F0C530D10530F340
:101A6000CE0104978617970708F3C61BD70B22975A
:101A7000C193D1936D937C93CF010E94800CD6CFFC
:101A80005B01AC1ABD0A4C018C0E9D1EA0912F0269
:101A9000B0913002512C412CF12CE12C109731F5F2
:101AA00080912D0290912E028815990509F05CC055
:101AB0004616570608F058C0809100019091010128
:101AC000009741F48DB79EB74091040150910501F4
:101AD000841B950BE817F90708F055C0F0932E0208
:101AE000E0932D02F90171836083A0CF8D919C91C9
:101AF000119712966C90129713967C901397A815D5
:101B0000B90559F56C0142E0C40ED11CCA14DB04BE
:101B100020F1AC014A195B09DA011296159780F0A1
:101B20006282738251834083D9016D937C93E11467
:101B3000F10471F0D7011396FC93EE93129776CFD0
:101B400022968C0F9D1FF90191838083F301EFCFC3
:101B5000F0933002E0932F0269CF4816590608F43B
:101B60002C017D01D3019ACFCB010E94E40B7C01B3
:101B7000009749F0AE01B8010E94C60DC8010E944D
:101B8000800C870153CF10E000E050CFFB01DC0157
:101B900002C001900D9241505040D8F70895FB01CA
:101BA000DC0101900D920020E1F70895F894FFCF39
:101BB00000003102800000000000C603260353032A
:101BC00013048403620376030D0A0053656E736F7A
:101BD000722064652054656D706572617475726100
:101BE00020792048756D6564616420444854313122
:101BF00000416C676F2053616C696F206D616C21CF
:101C000021007B002274656D70657261747572616C
:101C1000223A20002C002268756D65646164223AC6
:041C200020007D0023
:00000001FF
